:020000040800F2
:100000003808002049010008651200084F11000857
:1000100061120008DB070008891B000800000000CF
:100020000000000000000000000000003114000883
:100030009109000800000000ED12000845150008B5
:100040006301000863010008630100086301000800
:1000500063010008630100086301000863010008F0
:1000600063010008630100086301000863010008E0
:1000700063010008630100086301000863010008D0
:1000800063010008630100086301000863010008C0
:1000900063010008630100086301000863010008B0
:1000A00063010008630100086301000863010008A0
:1000B0006301000863010008630100086301000890
:1000C0006301000863010008630100086301000880
:1000D00063010008E5150008D1160008151800088E
:1000E0006301000863010008630100086301000860
:1000F0006301000863010008630100086301000850
:10010000630100086301000863010008630100083F
:10011000630100086301000863010008630100082F
:10012000630100086301000863010008630100081F
:10013000DFF810D000F00EFB00480047A9250008AA
:10014000AFF3008038080020064880470648004783
:10015000FEE7FEE7FEE7FEE7FEE7FEE7FEE7FEE777
:10016000FEE7FEE78515000831010008D2B201E084
:1001700000F8012B491EFBD270470022F6E710B5AC
:1001800013460A4604461946FFF7F0FF204610BD05
:1001900030B505462A460B4612F8010B13F8014B01
:1001A00008B1A042F8D01CB1002802D06D1CF1E7C4
:1001B000284630BD2DE9FE4F81EA030404F00044D7
:1001C00021F0004100944FF0000B23F0004350EA6F
:1001D00001045ED052EA03045BD0C3F30A54C1F3B6
:1001E0000A552C44A4F2F3340194A0FB0254C1F349
:1001F000130141F48011C3F3130343F4801301FB93
:10020000024400FB034E840A970A44EA815447EAF9
:100210008357A4FB076802958D0A05FB07854FEA03
:10022000932C04FB0C542705029D4FEA065847EA1D
:100230001637B5EB08056EEB070C870E920E47EAF2
:10024000811742EA8312A7FB0201B6EB0B0164EBB4
:1002500000042B0D43EA0C335E1844EB1C50DA46C5
:100260005146E7FB0201C5F313044FEA0B3343EA9F
:1002700014534FEA0432019C43EA0603A4F10C0430
:100280000294009CCDE900B400F0CFF803B0BDE8C3
:10029000F08F00200146F9E70EB540F2334102919C
:1002A0000021CDE900110A460B4600F0BEF803B06C
:1002B00000BD00F0004230F000400AD0C10D01F551
:1002C0006071C0F3160042EA0151C20840071143B1
:1002D000704700200146704701F0004330B421F020
:1002E000004150EA010206D00A0DA2F56072C1F386
:1002F0001301002A02DC30BC00207047440F44EA9E
:10030000C104C100E01830BC00EBC25000F047B897
:1003100030B50B46014600202022012409E021FAD5
:1003200002F59D4205D303FA02F5491B04FA02F5D2
:100330002844151EA2F10102F1DC30BD2DE9F05F69
:100340000546002092469B46884606468146402444
:100350001BE0284641464746224600F01CFA534619
:100360005A46C01A914110D311461846224600F051
:1003700003FA2D1A67EB01084F462246012000219F
:1003800000F0FAF917EB00094E41201EA4F1010418
:10039000DFDC484631462A464346BDE8F09F002947
:1003A000A8BF7047401C490008BF20F001007047FB
:1003B00010B4B0FA80FC00FA0CF050EA010404BF5B
:1003C00010BC704749B1CCF1200421FA04F411FAB1
:1003D0000CF118BF012121430843A3EB0C01CB1DF5
:1003E0004FEA00614FEA102042BF002010BC704766
:1003F00000EBC35010440029A4BF10BC7047401C40
:10040000490008BF20F0010010BC704710B5141E51
:1004100073F1000408DA401C41F1000192185B41BD
:100420001A4301D120F0010010BD2DE9F04D924694
:100430009B4611B1B1FA81F202E0B0FA80F22032AB
:10044000904600F099F904460F4640EA0A0041EA56
:100450000B0153465A46084313D0114653EA010094
:1004600019D0C8F14002504600F095F905460E46F5
:1004700050465946424600F07FF9084305D0012016
:1004800004E020463946BDE8F08D0020054346EAE9
:10049000E0762C4337430A986305E40AA0EB080092
:1004A0000022FD0A44EA47540A3002D500200146E2
:1004B000E9E7010510196941DDE9084500196941BD
:1004C000BDE8F04DA2E72DE9FE4F804681EA03002A
:1004D000C00F0C46009021F0004123F00045B8EB1E
:1004E0000200A94105D24046214690461C460B46D3
:1004F000024623F00040104347D0270DC7F30A00FF
:10050000C3F30A510290401A019040286BDAC3F3FA
:10051000130040F4801B0098924620B10023D2EBD8
:10052000030A63EB0B0B01985946C0F14002504699
:1005300000F022F906460D4650465946019A00F051
:100540003AF910EB08006141002487EA115284EA6D
:10055000E7731A4340D0009A62B3019A012A4FEA26
:10056000075215DC001B61EB02014FF0004202EA6A
:100570000752CDE90042001C41F5801132462B465E
:10058000FFF753FF03B0BDE8F08F40462146F9E77F
:10059000001B61EB0201001C41F5801300185B4158
:1005A0002018A2F5001747EB030140EAD570B619F1
:1005B0006D4111E06D084FEA360645EAC0754FEA15
:1005C0000752001B61EB0201001C41F58011490834
:1005D0004FEA30000019514132462B4603B0BDE8C6
:1005E000F04FFFF713BF0098012240000023D0EB2B
:1005F000020263EBE073009821464FEAE074B8EB27
:10060000000061EB0401E9E783F000435BE781F060
:10061000004158E72DE9F04D81EA030404F0004B56
:1006200021F0004514464FF0000A23F0004150EA43
:10063000050220D054EA01021DD0C5F30A57024634
:10064000C5F31303C1F31300C1F30A5640F4801538
:1006500043F48013A7EB0608101BD64608F2FD38BA
:1006600073EB050002D308F1010801E092185B4129
:10067000B8F1000F03DA00200146BDE8F08D00203C
:100680004FF48011064684460EE0171B73EB0507F6
:1006900005D3121B63EB050306434CEA010C490822
:1006A0004FEA300092185B4150EA0107EDD152EA5F
:1006B000030012D082EA040083EA0501084305D052
:1006C000101BAB4106D20122002306E000224FF0AE
:1006D000004302E06FF0010253101AEB06004CEBEE
:1006E000085110EB0A0041EB0B01BDE8F04DFFF79C
:1006F0008DBEC1F30A52C1F3130140F2FF3341F43E
:1007000080119A4202DA00200146704740F23343DA
:100710009A42A2F2334202DC524200F03CB800F0AE
:100720002BB8000030B5041E71F1000404DB4FF05B
:100730000044404264EB0101141E73F1000405DB28
:100740001C464FF00043524263EB0403994208BF3A
:10075000904230BD064C074D06E0E06840F00103D2
:1007600094E8070098471034AC42F6D3FFF7E4FC56
:10077000C4260008E4260008202A04DB203A00FAF8
:1007800002F1002070479140C2F1200320FA03F3E8
:10079000194390407047202A04DB203A21FA02F0E6
:1007A0000021704721FA02F3D040C2F120029140AB
:1007B000084319467047202A06DBCB17203A41FA36
:1007C00002F043EAE07306E041FA02F3D040C2F1DE
:1007D0002002914008431946704700BFFEE7000021
:1007E0002DE9F05F0024A246A146A34600F00AFED0
:1007F00000F0D0F8CC2000F08BF8442000F088F80E
:1008000000F000FE00F0C6F8CC2000F081F8BE2019
:1008100000F07EF800F068F8824600F065F8814646
:100820004AEA092409F0F80078B1E043401C84B298
:100830002046FFF731FD074600220B4BFFF7BAFCBD
:100840000546FFF749FD83460BE02046FFF724FDF0
:1008500007460022054BFFF7ADFC0546FFF73CFDC0
:1008600083465846BDE8F09F0000B0BF0000B03F8F
:1008700010B548200349096888710248006800F0F3
:1008800075FC10BD1400002010B510200349096844
:1008900088710248006800F069FC10BD1400002057
:1008A00010B50024FFF7F0FF00200D49086002207A
:1008B00001F010FE01200B49C1F8AC01FFF7D8FF91
:1008C0000C2001F007FE06488038006810B144F0A3
:1008D000010400E000BF322001F0FCFD204610BD05
:1008E000AC0124420000244270B5002600250024FB
:1008F00000BF08E0FFF7D4FF064606FA04F02843DD
:10090000C5B2601CC4B2082CF4DB284670BD0000E0
:100910002DE9F0410446002700252646FFF7B4FFE5
:1009200000BF20E006F0010776106FB100201049EB
:100930000860022001F0CEFD01200E49C1F8AC0193
:100940003C2001F0C7FD0CE00020094908603C2074
:1009500001F0C0FD01200749C1F8AC01022001F0FF
:10096000B9FD681CC5B2082DDCDBBDE8F0810000D4
:10097000AC0124420000244210B5024800F0EAFB1A
:1009800010BD00001C00002010B5FFF729FF10BDAE
:100990007047000010B50024FFF76AFF04E0012053
:1009A00001F098FD601CC4B20D48006808B1C82C65
:1009B000F5DBC82C01DB012010BD002404E0012080
:1009C00001F088FD601CC4B20548006808B9F02C2D
:1009D000F5DBF02C01DB0120EEE70020ECE7000066
:1009E0002C01244210B5002440210C4800F0ADFB3E
:1009F0004FF47A7001F048FD0CE04FF4FA730022D6
:100A000007A108A000F092FA00B110BD00F0CEF9E5
:100A1000601CC4B20A2CF0DB00BFF6E700180140EE
:100A20004F4B00004154000010B586B004460CB195
:100A3000012000E00020024606A101A801F0B6F85E
:100A40004FF4FA73002207A101A800F06FFA06B074
:100A500010BD000041542B4349504D55583D25646D
:100A6000000000004F4B000010B54FF47A7001F009
:100A70000BFD04A1044801F004F84FF4FA7001F0F2
:100A800003FD10BD2B2B2B000044004010B54FF48C
:100A9000FA7300220DA10EA000F048FAA0B110A137
:100AA0001248FFF775FB08B1022010BD10A10F48D6
:100AB000FFF76EFB08B10320F7E710A10B48FFF723
:100AC00067FB08B10420F0E70020EEE74F4B000081
:100AD00041542B4349505354415455530000000096
:100AE0005354415455533A320D0A0000340000204B
:100AF0005354415455533A330D0A00005354415452
:100B000055533A340D0A000038B5044601214FF41C
:100B1000A07000F0FDFB4020ADF8000010208DF823
:100B2000030003208DF8020069460B4800F080FAAC
:100B30008020ADF800006946084800F079FA2046A8
:100B400000F016FE4021044800F0FFFA802103481F
:100B500000F0F9FA38BD0000001801400020014003
:100B600030B59FB004460D462B46224606A101A88B
:100B700001F01CF841F28833002208A101A800F01E
:100B8000D5F91FB030BD000041542B43574A4150A6
:100B90003D222573222C2225732200004F4B00009A
:100BA000F0B5B9B006460F4614461D46642120A88C
:100BB000FFF7E3FA16B1012E10D107E03B4614A26D
:100BC00014A120A8009400F0F1FF08E03B4615A214
:100BD00010A120A8009400F0E9FF00E000BF00BFD2
:100BE000052D06DA20AB2A460FA102A800F0DEFF91
:100BF00004E020AA11A102A800F0D8FF4FF47A6304
:100C000012A216A102A800F091F939B0F0BD0000BF
:100C100054435000222573222C222573222C257345
:100C2000000000005544500041542B434950535498
:100C30004152543D25642C257300000041542B4340
:100C4000495053544152543D25730000414C524584
:100C5000415920434F4E4E45435400004F4B000036
:100C600010B5044624B1012C0AD0022C18D10FE093
:100C700040F6C4130BA20EA10EA000F057F910BD50
:100C800040F6C41307A20AA10DA000F04FF9F6E741
:100C900040F6C41303A206A10CA000F047F9EEE74A
:100CA0000020ECE76E6F206368616E6765000000EE
:100CB0004F4B000041542B43574D4F44453D3100AD
:100CC00041542B43574D4F44453D320041542B4333
:100CD000574D4F44453D330070B50546052300226E
:100CE0002946012000F0D2F814480078002824D0CA
:100CF000FFF7BAFE00BFFFF7C9FE0446002CFAD08A
:100D0000042C15D10EA000F041FF00BF15A118A0C2
:100D1000FFF726FF0028F9D000BF052316A218A16F
:100D20000020FFF73DFF0028F7D019A000F02EFFAC
:100D300000BF00F057F90028FBD070BD2C00002048
:100D40000D0AC7EBC9D4B5C8A3ACD5FDD4DAD6D843
:100D5000C1ACC8C8B5E3BACDB7FECEF1C6F72E2EEA
:100D60002E0D0A0031323334353637383930000031
:100D7000313030357E32000038303830000000002D
:100D80003139322E3136382E302E313036000000D7
:100D90000D0AD6D8C1ACC8C8B5E3BACDB7FECEF1FE
:100DA000C6F7B3C9B9A60D0A0000000010B540216E
:100DB000054800F0C8F94FF4FA7001F065FB4021D6
:100DC000014800F0C2F910BD0018014010B514A090
:100DD00000F0DCFE80211B4800F0B7F9FFF702FEAF
:100DE0000020FFF73DFF00BF17A11AA0FFF7B8FED4
:100DF0000028F9D00020FFF717FE00BF052317A237
:100E000018A10020FFF7CCFE0028F7D000BF00F0AB
:100E1000E9F80028FBD017A000F0B8FE10BD0000D4
:100E20000D0AD5FDD4DAC5E4D6C345535038323661
:100E300036C7EBC4CDD0C4B5C8B4FD2E2E2E0D0AD6
:100E4000000000000020014031323334353637389D
:100E500039300000313030357E32000038303830E3
:100E6000000000003139322E3136382E302E31302C
:100E7000360000000D0AC5E4D6C34553503832365B
:100E800036204F4BA3A10D0A000000002DE9F041D0
:100E900086B007460C4615461E464FF000083FB187
:100EA000224614A1144800F0ECFD4FF001081CE0AC
:100EB000052E06DAAB1C324610A101A800F076FE22
:100EC00004E0AA1C12A101A800F070FE4FF47A738E
:100ED000002213A101A800F029F84FF47A73002230
:100EE00010A1204600F022F88046404606B0BDE83A
:100EF000F0810000257300000044004041542B4362
:100F0000495053454E443D25642C256400000000A3
:100F100041542B43495053454E443D256400000045
:100F20003E20000053454E44204F4B002DE9F04138
:100F300006460C4615461F462548B0F800046FF3D8
:100F40000E002349A1F80004324622A1234800F0F4
:100F500098FD1CB915B90120BDE8F081B8B201F0C7
:100F600093FA00201A49B1F80014C1F30E01184A8F
:100F7000505411461AA000F009FEB4B1ADB121469B
:100F80001348FFF705F908B1012000E0002040B93F
:100F900029460F48FFF7FCF808B1012000E00020C7
:100FA00008B10120D8E70020D6E744B1214608481F
:100FB000FFF7EEF808B10120CEE70020CCE7294684
:100FC0000348FFF7E5F808B10120C5E70020C3E7B3
:100FD0003400002025730D0A00000000004400408A
:100FE0002573000010B54FF4FA73002207A108A082
:100FF000FFF79CFF08B9002010BD4FF4FA7308A258
:1010000002A108A0FFF792FFF6E700004F4B000097
:1010100041542B4349504D4F44453D3100000000A1
:101020003E00000041542B43495053454E440000BC
:101030002DE9F0410246002500260020002300246F
:10104000002791F803C00CF00F0591F803C00CF0D5
:10105000100CBCF1000F03D091F802C04CEA05055A
:1010600091F800C0BCF1000F31D0146800202BE0D3
:101070004FF0010C0CFA00F3B1F800C00CEA0306C3
:101080009E4220D183004FF00F0C0CFA03F7BC43B3
:1010900005FA03FC4CEA040491F803C0BCF1280FE4
:1010A00006D14FF0010C0CFA00FCC2F814C00AE0A3
:1010B00091F803C0BCF1480F05D14FF0010C0CFAB8
:1010C00000FCC2F810C0401C0828D1D31460B1F84D
:1010D00000C0BCF1FF0F34DD546800202EE000F1A9
:1010E000080C4FF0010808FA0CF3B1F800C00CEA44
:1010F00003069E4221D183004FF00F0C0CFA03F738
:10110000BC4305FA03FC4CEA040491F803C0BCF1AB
:10111000280F05D100F1080C08FA0CF8C2F8148069
:1011200091F803C0BCF1480F07D100F1080C4FF053
:10113000010808FA0CF8C2F81080401C0828CED329
:101140005460BDE8F081416170470161704700BFA4
:10115000FEE7000010B504460348046000F052F9B1
:10116000FFF718FC10BD00001400002038B504463D
:10117000208900284BD026492068884204D10121CB
:10118000042000F0C5F834E022492068884204D1E8
:101190000121082000F0BCF82BE01F49206888429C
:1011A00004D10121102000F0B3F822E01B4920688F
:1011B000884204D10121202000F0AAF819E0184942
:1011C0002068884204D10121402000F0A1F810E0FD
:1011D00014492068884204D10121802000F098F849
:1011E00007E011492068884203D10121801500F0F1
:1011F0008FF8A0798DF8030003208DF80200A088F5
:10120000ADF8000069462068FFF712FF00BF38BD47
:1012100000080140000C0140001001400014014092
:1012200000180140001C01400020014008B50121C8
:10123000102000F06DF8FF20ADF8000010208DF8B0
:10124000030003208DF8020069460448FFF7F0FE12
:10125000FF210248FFF779FF08BD000000100140A0
:1012600000BFFEE77047000070B5002100230F2289
:10127000C47804B3154C246804F4E064C4F5E06455
:10128000210AC1F10403CA40447804FA03F18478C6
:101290001440214309010E4C0678A155047804F04E
:1012A0001F050124AC4005786D11AD0005F1E02566
:1012B000C5F8004109E0047804F01F050124AC40A2
:1012C000044D0678761145F8264070BD0CED00E01F
:1012D00000E400E080E100E002490143024A1160BD
:1012E000704700000000FA050CED00E070470000B8
:1012F00029B1064AD2690243044BDA6104E0034A89
:10130000D2698243014BDA6170470000001002404D
:1013100029B1064A92690243044B9A6104E0034AE8
:1013200092698243014B9A617047000000100240AD
:1013300030B500210022002400232D4D6D6805F0FA
:101340000C0121B1042905D0082923D105E0294D3C
:10135000056022E0274D05601FE0254D6D6805F40E
:101360007012234D6D6805F48034022505EB92421E
:101370001CB9214D554305600BE01D4D6D6805F40A
:1013800000351DB11C4D5543056002E0194D554314
:10139000056002E0174D056000BF00BF144D6D6889
:1013A00005F0F0010909154D6B5C0568DD404560ED
:1013B0000F4D6D6805F4E061090A104D6B5C4568DE
:1013C000DD4085600A4D6D6805F46051C90A0B4D1A
:1013D0006B5C4568DD40C560054D6D6805F44041B6
:1013E000890B074D6B5CC568B5FBF3F5056130BD36
:1013F0000010024000127A0000093D0000000020A9
:101400001000002010B5FFF73FFA002006490860E1
:101410004FF4FA7001F05EF801200449C1F8AC0104
:101420000F2001F057F810BDAC0124420000244207
:10143000704710B500F002F810BD00000CB5002098
:10144000019000903348006840F4803031490860D2
:1014500000BF3048006800F4003000900198401C44
:101460000190009818B90198B0F5A06FF1D1294802
:10147000006800F4003010B10120009001E000206D
:1014800000900098012843D12348006840F01000E4
:10149000214908600846006820F0030008600846FB
:1014A000006840F0020008601A4840681949486026
:1014B0000846406848600846406840F480604860DC
:1014C0000846406820F47C1048600846406840F4B4
:1014D000E81048600846006840F08070086000BF6F
:1014E0000C48006800F000700028F9D009484068F6
:1014F00020F00300074948600846406840F00200B9
:10150000486000BF0348406800F00C000828F9D18B
:101510000CBD00000010024000200240042808D149
:101520004FF0E021096941F004014FF0E022116120
:1015300007E04FF0E021096921F004014FF0E022BB
:10154000116170477047000010B504466FF0040049
:10155000FFF7E4FFE11704EB5171C1F3C701074A3C
:1015600011701046007800EB4001C1EBC0104FF63F
:10157000FF7101EAC0000249088010BD2800002068
:101580002A00002010B51348006840F001001149FE
:10159000086008464068104908400E4948600846FF
:1015A00000680E4908400B4908600846006820F4AE
:1015B000802008600846406820F4FE0048604FF430
:1015C0001F008860FFF735FF4FF000600449086096
:1015D00010BD0000001002400000FFF8FFFFF6FE03
:1015E00008ED00E010B540F225510C4800F084F9F8
:1015F00070B10A4800F03CFAC4B22146074800F036
:101600003CFA00BF4021054800F069F90128F9D1F2
:101610004021024800F04EF910BD000000380140A2
:1016200010B586B0044601218803FFF771FE012141
:101630000420FFF76DFE4FF40070ADF81400182081
:101640008DF8170003208DF8160005A91E48FFF736
:10165000EFFC4FF48060ADF8140004208DF8170003
:1016600005A91948FFF7E4FC01940020ADF8080033
:10167000ADF80A00ADF80C00ADF810000C20ADF884
:101680000E0001A9114800F087F901210F4800F070
:101690001AF940210D4800F00DF9012240F22551C0
:1016A0000A4800F053F925208DF8000003208DF83A
:1016B00001008DF8020001208DF803006846FFF755
:1016C000D3FD06B010BD0000000801400038014005
:1016D00010B540F22551204800F00EF9D8B11E484F
:1016E00000F0C6F9C4B21D48B0F80004C0F30E0003
:1016F00040F2FF3188420EDA1849B1F80014C1F304
:101700000E00411C154AB2F8002461F30E02134981
:10171000A1F800240C5440F224410F4800F0ECF8EA
:10172000012817D10D48B0F8000420F4004000F55E
:1017300000400A49A1F80004074800F099F9C4B232
:1017400007A10648FEF724FD08B1012000E00020B3
:101750000649087010BD000000440040340000201D
:10176000434C4F5345440D0A000000002C0000205C
:1017700010B586B0044601214804FFF7B9FD0121E8
:101780000420FFF7C5FD0420ADF8140003208DF8F8
:10179000160018208DF8170005A91C48FFF748FC13
:1017A0000820ADF8140004208DF8170005A917488B
:1017B000FFF73EFC26208DF8000000208DF8010088
:1017C0008DF8020001208DF803006846FFF74CFDFC
:1017D00001940020ADF80800ADF80A00ADF80C0047
:1017E000ADF810000C20ADF80E0001A9084800F07B
:1017F000D3F8012240F22551054800F0A7F8012155
:10180000034800F060F806B010BD00000008014079
:101810000044004010B540F22551204800F06CF81B
:10182000D8B11E4800F024F9C4B21D48B0F8000435
:10183000C0F30E0040F2FF3188420EDA1849B1F8C9
:101840000014C1F30E00411C154AB2F8002461F3E4
:101850000E021349A1F800240C5440F224410F4811
:1018600000F04AF8012817D10D48B0F8000420F420
:10187000004000F500400A49A1F80004074800F0C4
:10188000F7F8C4B207A10648FEF782FC08B10120B0
:1018900000E000200649087010BD0000004800402C
:1018A00034000020434C4F5345440D0A0000000013
:1018B0002C00002001F40072B2F5007F00D100BFBF
:1018C000CA430280704721B1828942F4005282816A
:1018D00004E082894DF6FF731A4082817047024608
:1018E0000020B1F5007F00D100BF13880B400BB181
:1018F000012000E00020704770B50246002400235C
:101900000025002040F66A16B14200D100BFC1F3A5
:10191000421501F01F03012606FA03F3012D02D13F
:101920009689334006E0022D02D1168A334001E049
:10193000968A33400C12012606FA04F416883440C5
:1019400013B10CB1012000E0002070BDF0B50346DA
:10195000002400260025002040F66A17B94200D175
:1019600000BF1846C1F3421401F01F06012707FA11
:1019700006F5012C01D10C3004E0022C01D110300D
:1019800000E014301AB107682F43076002E00768CF
:10199000AF430760F0BD00002DE9F04786B0054673
:1019A0000E460024A24600BFA1460027B08900B120
:1019B00000BF2F462C8A4CF6FF700440F088044389
:1019C0002C82AC894EF6F3100440B088318908436C
:1019D000718908430443AC81AC8A4FF6FF40044050
:1019E000B0890443AC8201A8FFF7A2FC1F488742DC
:1019F00002D1DDF810A001E0DDF80CA0A88900F408
:101A0000004040B10AEBCA0000EB0A1031684900FF
:101A1000B0FBF1F807E00AEBCA0000EB0A103168EE
:101A20008900B0FBF1F86420B8FBF0F00401200954
:101A3000642101FB1089A88900F4004040B13220E4
:101A400000EBC900B0FBF1F000F00700044308E030
:101A5000322000EB09106421B0FBF1F000F00F0020
:101A600004432C8106B0BDE8F08700000038014037
:101A700001468888C0F308007047C1F308028280DD
:101A800070470FB4F0B585B007460CA8009073E01E
:101A90000B9800785C281CD10B98401C0B900078A8
:101AA0006E2809D072280FD10D213846FFF7E5FFC7
:101AB0000B98401C0B900BE00A213846FFF7DDFF26
:101AC0000B98401C0B9003E00B98401C0B9000BF40
:101AD0004BE00B980078252840D10B98401C0B90C8
:101AE0000078642818D0732833D1009810C800906B
:101AF0000BE021783846FFF7C0FF00BF8021384651
:101B0000FFF7EDFE0028F9D0641C20780028F0D102
:101B10000B98401C0B9020E0009840C800900A22CF
:101B200001A9304600F00EFD01AD0BE029783846E2
:101B3000FFF7A3FF00BF80213846FFF7D0FE002843
:101B4000F9D06D1C28780028F0D10B98401C0B9020
:101B500003E00B98401C0B9000BF06E00B9810F8B8
:101B6000011B0B903846FFF788FF00BF80213846E5
:101B7000FFF7B5FE0028F9D00B980078002887D130
:101B800005B0F0BC5DF814FB00BFFEE70FB4054BD9
:101B900010B503A9044A029800F0EEF810BC5DF8F5
:101BA00014FB000021250008300000200FB4084B72
:101BB00010B504A902AA039800F0DEF8044602A9B1
:101BC000002000F05CFC204610BC5DF814FB000017
:101BD0007F24000802E008C8121F08C1002AFAD1B9
:101BE00070477047002001E001C1121F002AFBD19D
:101BF000704700002DE9FF5F82B00021DDE904306D
:101C0000020DDDF840B0034318D044F61050A2F2A4
:101C1000FF3242431514119801281FD0A5EB0B0089
:101C2000401C5FEA000A4FF000064E4FDFF8389183
:101C3000B046504615D5CAF1000413E011980124AE
:101C40004AA3012801D16FEA0B010298119AC0E959
:101C50000031C0E9024206B0BDE8F09FCBF10000C0
:101C6000DFE704460021404A491842EB0450CDE921
:101C7000001012E0E00707D032463B464046494696
:101C8000FEF798FA8046894632463B46104619468A
:101C9000FEF790FA06460F466410002CEAD1DDE903
:101CA0000401DDE90023BAF1000F06DAFEF782FA3B
:101CB00042464B46FEF77EFA05E0FEF7ABFC424695
:101CC0004B46FEF7A7FC04460E460022284BFEF7C3
:101CD00029FD03D84FF0FF30014607E00022254BD5
:101CE00020463146FEF7EFFBFEF703FD102409E026
:101CF000002C0ADB0A220023FEF720FB039B303274
:101D00001A55641E50EA0102F2D1641C039AC4F110
:101D100011031444119A012A03D0012208430DD162
:101D20000AE0084304D000204FF0110B119072E735
:101D3000A3EB0B056D1E0DE05B4504DD4FF00002CB
:101D400005F1010504E003DA4FF00002A5F10105F9
:101D5000002AECD002981199C0E90231C0E900458F
:101D600079E70000000014400000F03F3000000060
:101D70000000F0430000E03F2DE9FF4F95B09A4688
:101D8000884606460025EEE1252877D1002427461F
:101D9000F94A0121039400E0044316F8013F203B77
:101DA00001FA03F01042F7D130782A2811D06FF0F1
:101DB0002F033078A0F13002092A16D8039A44F094
:101DC000020402EB820203EB42021044761C0390F1
:101DD000EFE758F8042B0392002A03DA504244F448
:101DE0000054039044F00204761C30782E2816D15B
:101DF00016F8010F44F004042A280DD06FF02F02CA
:101E00003078A0F13003092B09D807EB870302EBE8
:101E10004303C718761CF3E758F8047B761C307828
:101E20006C280FD006DC4C2817D068280DD06A2803
:101E300014D104E0742810D07A280FD10DE044F4B6
:101E400000140AE044F4801401E044F44014727871
:101E5000824202D104F58014761C761C3078662804
:101E60000BD013DC582877D009DC002875D0452822
:101E7000F6D04628F4D047281AD193E118E0632819
:101E800035D0642879D0652812D18BE1702873D0C1
:101E900008DC6728F1D069286FD06E280DD06F2834
:101EA00006D1ACE073282CD0752874D0782853D094
:101EB0005246179990476D1C54E1C4F30250022812
:101EC00009D003280DD0D8F8001004280DD00D60DB
:101ED00008F1040846E1D8F80010EA17C1E90052F9
:101EE000F6E7D8F800100D80F2E70D70F0E718F86B
:101EF000041B8DF8001000208DF80100EB46012036
:101F000003E058F804BB4FF0FF3061074FF00001C9
:101F100002D40DE009F101018946B9420FDA814589
:101F2000F8DB1BF809100029F4D108E009F10101E0
:101F300089468142FADB1BF809100029F6D1039883
:101F40005346A0EB090721463846179A00F080FA5D
:101F5000284400EB090507E044E008E10DE01BF828
:101F6000010B524617999047B9F10109F7D2534630
:101F700021463846179AF2E039E00A21C4F30252AA
:101F80004FF0000B0091022A06D058F8040BC1173D
:101F9000032A09D00AE023E008F1070020F0070235
:101FA000F2E80201904605E000B2C117042A01D10F
:101FB00040B2C117002906DA0A460021404261EB0F
:101FC00002012D2202E0220504D52B228DF80420E7
:101FD000012203E0E20701D02022F7E7914657E013
:101FE0000A2100E010214FF0000B00910BE01021BE
:101FF0004FF0000B44F004040827009103E0082090
:102000004FF0000B0090C4F30252022A05D058F89A
:10201000040B0021032A08D008E008F1070020F093
:102020000702F2E80201904603E080B2042A00D1E0
:10203000C0B24FF0000922072AD53278702A07D0A3
:10204000DDF800C08CF0100C5CEA0B0C05D00EE043
:1020500040228DF80420012208E050EA010306D056
:1020600030238DF804308DF8052002229146009B24
:1020700083F0080353EA0B030AD150EA010201D1AD
:10208000620705D530228DF804204FF001097F1E2C
:102090003278582A04D039A20C920CAA02920BE092
:1020A0003BA2F9E75B46009AFEF748F90C9B9B5C64
:1020B000029A521E0292137050EA0102F2D1029863
:1020C00004A9081A00F1200B600702D524F480341B
:1020D00000E001275F4502DDA7EB0B0000E00020D8
:1020E00000EB0B01009003984944401A0390E00371
:1020F00006D453462146179A039800F0A9F90544DF
:10210000002706E001A85246C05D179990476D1C54
:102110007F1C4F45F6DBE0030CD553462146179A4A
:10212000039800F095F9054404E0302052461799D1
:1021300090476D1C0099481E00900029F5DC08E0CE
:102140000298029952460078491C029117999047CB
:102150006D1CBBF10001ABF1010BF1DC5BE100F0A8
:1021600065F90544761C307800287FF40DAE19B06F
:102170002846BDE8F08F00000928010030313233D5
:1021800034353637383961626364656600000000B3
:10219000303132333435363738394142434445469D
:1021A00000000000600700D4062708F1070020F0B7
:1021B0000700F0E80223804603F0004C5FEA0C00C1
:1021C00001D097A009E0200501D596A005E0E00721
:1021D00001D095A001E0AFF24C001390307823F0CD
:1021E000004365280CD006DC452809D046281DD0C0
:1021F00047287FD13BE0662818D067287AD136E09F
:102200000021112F01DB112000E0781CCDE9000135
:1022100004A90CA8FFF7EEFCDDE90D010C9A4FF0C4
:10222000000B07F10109109200914EE04FF00040C1
:102230000097CDE9011004A90CA8FFF7DBFCDDE94C
:102240000D020C9B0F994FF0000B914610930092DA
:1022500011B9791C00EB0109B7EB090003D4C0F1F7
:10226000FF3B07F10109A9EB0700019042E0012FB4
:1022700000DA01270021112F01DD112000E038468E
:10228000CDE9000104A90CA8FFF7B4FCDDE90D01BC
:102290000C9A00914FF0000BB946109221070FD411
:1022A000009A4A4503DA914601E0A9F10109B9F122
:1022B000010F05DD109AA9F10101515C3029F4D01C
:1022C000B84202DA10F1040F03DA0121CDE901105E
:1022D00010E0002803DC8344A9EB000102E0411C6C
:1022E000494500DD8946A0EB0B00401C01904FF0F2
:1022F00000400290200705D40198484502DB4FF0CA
:10230000FF30019000208DF84B0002980DF14B0733
:10231000B0F1004F25D002200C902B200D90029898
:1023200000280CDA404202902D200D9007E00A218F
:102330000298FDF7EDFF3031029007F8011D0C996E
:10234000481E0C900029F2DC02980028EFD1791E7B
:102350000D980870307800F0200040F0450007F834
:10236000020D11A8C01BC01D02901398007800B187
:10237000012000EB0901019801EBE0710298014492
:102380000398401A401E0390E00306D453462146AA
:10239000179A039800F05CF805441398007818B178
:1023A0005246179990476D1CE00323D553462146AA
:1023B000179A039800F04CF805441BE0BBF1000F9E
:1023C00007DB0098584504DD1098179910F80B00AA
:1023D00001E0179930205246904701980BF1010B0C
:1023E000401E05F10105019004D12E205246179997
:1023F00090476D1CB9F10001A9F10109DEDC05E08F
:1024000017F8010B5246179990476D1C0299481E08
:1024100002900029F4DC53462146179A03989EE661
:102420002D0000002B000000200000002DE9F041ED
:10243000044600251E461746880404D405E03946A4
:102440002020B0476D1C641EF9D52846BDE8F081F8
:102450002DE9F041044600251E469046C80301D5EB
:10246000302700E02027880404D505E0414638469F
:10247000B0476D1C641EF9D52846BDE8F0810A6896
:10248000531C0B60107070470146114A12884A4372
:102490004FF0E0235A6100229A611A46126942F015
:1024A00001021A6100BF4FF0E022106900F0010242
:1024B0001AB100F48032002AF5D04FF0E022126900
:1024C00022F001024FF0E0231A6100229A61704766
:1024D0002A0000200146114A12784A434FF0E023B7
:1024E0005A6100229A611A46126942F001021A6189
:1024F00000BF4FF0E022106900F001021AB100F4B1
:102500008032002AF5D04FF0E022126922F0010259
:102510004FF0E0231A6100229A61704728000020E2
:1025200070B504460D46E1B20548FFF7A6FA00BFB4
:1025300080210348FFF7D3F90028F9D0204670BD69
:1025400000380140F0B503460D46164600272946DF
:102550000A2E03D0002008702846F0BD33B9302081
:1025600001F8010B002008702846F6E7002B03DA7B
:102570002D2001F8010B5B4242F210720DE093FB3B
:10258000F2F404B937B104F1300001F8010B04FB97
:10259000123301270A2092FBF0F2002AEFDC002020
:1025A00008702846D9E700009AB00024642101A8E9
:1025B000FDF7E3FD4820FEF7C7FF4FF4A060FEF7EC
:1025C0008BFEFEF733FE4FF4E130FFF729F806E00B
:1025D00026A0FFF7DBFA4FF4FA70FFF755FFFEF77E
:1025E000CBF90028F4D12AA0FFF7D0FA4FF4E1305C
:1025F000FEF78AFAFEF7EAFB37E0601CC4B214204B
:1026000094FBF0F100FB114038B92648006808B986
:10261000012000E00020234908604FF4FA7094FB89
:10262000F0F100FB1140E8B9FEF7AEF90746FDF7FF
:1026300040FE05462A460B461BA0FFF7A7FA642179
:1026400001A8FDF79AFDFEF79FF90746FDF731FE59
:1026500005462A460B4614A101A8FFF7A7FA01A8D0
:10266000FEF73AFB0A20FFF70FFFC6E7CEB4BCEC3B
:10267000B2E2B5BD44533138423230A3ACC7EBB2FD
:10268000E5BAC3B4ABB8D0C6F7A3A10D0A000000E9
:10269000BCECB2E2B5BD44533138423230A3A10D97
:1026A0000A00000080012242BCECB2E2B5BDB5C414
:1026B000CEC2B6C8CEAAA3BA5B252E3266A1E65D0D
:1026C0000D0A0000E426000800000020340000008D
:1026D000D41B00081827000834000020040800005C
:1026E000E41B0008000000000102030401020304CF
:1026F00006070809020406080000000000000000A8
:10270000002001400008100001000000000000004F
:082710000000000000000000C1
:0400000508000131BD
:00000001FF
